S0170000737068656F6E697820747820762E322E737265639D
S113000012C02CC02BC02AC029C028C027C026C0BB
S113001025C0C3C223C023C021C020C01FC01EC02E
S11300201DC01CC01BC011241FBECFE5D4E0DEBF21
S1130030CDBF10E0A0E6B0E0ECECF9E002C0059022
S11300400D92A436B107D9F720E0A4E6B0E001C0D0
S11300501D92A639B207E1F75CD3B6C4D1CF1F9283
S11300600F920FB60F9211248F938CB180937D0061
S11300708F910F900FBE0F901F901895823069F0EA
S113008018F4813031F014C0833059F0843069F0B1
S11300900FC083E380937C000BC082E280937C00DA
S11300A007C089E180937C0003C08CE080937C00CE
S11300B010BC80917C0089B960FF02C088E08AB9D5
S11300C0862F8470667009F0549A8111579A889823
S11300D0899A0895662379F0FC016150262F30E057
S11300E02F5F3F4F280F391F5D9BFECF91919CB925
S11300F0E217F307C9F7089586E085BB86B3E3E901
S1130100F0E08095808387EC90E00197F1F700C0E0
S1130110000085E085BB86B38095818387EC90E001
S11301200197F1F700C0000083E085BB86B380959A
S1130130828387EC90E00197F1F700C000001092F1
S11301408B0010928900818184FF03C091E0909319
S11301508B0085FF05C090918B00986090938B0075
S113016086FF05C090918B00906490938B00882348
S11301701CF484E0809389008091950084FF05C07D
S113018090918B00926090938B0085FF05C09091B5
S11301908B00906190938B0086FF05C090918B003B
S11301A0906890938B0088232CF48091890082605E
S11301B0809389008091930084FF05C090918B0007
S11301C0946090938B0085FF05C090918B009062A2
S11301D090938B0086FF05C0909189009160909365
S11301E0890088232CF48091890088608093890099
S11301F08091890090E0982F882720918B00822B92
S1130200909382008093810008958FEF8093620021
S113021073DF809387009093880090938900809384
S11302208B0091FF04C021E02093700016C0209140
S11302307000213091F420916F00233020F42F5F5F
S113024020936F0003C021E020936F0021E02093EE
S11302506E00109270001092620080FF04C021E0D2
S11302602093710016C020917100213091F42091E7
S11302706F00233020F42F5F20936F0003C021E030
S113028020936F0021E020936E0010927100209360
S1130290620081FF04C021E02093720017C0209106
S11302A07200213099F420916F00233020F42F5FE5
S11302B020936F0003C021E020936F0021E020937E
S11302C06E001092720022E02093620082FF04C04C
S11302D021E02093730017C020917300213099F41A
S11302E020916F00233020F42F5F20936F0003C010
S11302F021E020936F0021E020936E0010927300A0
S113030023E02093620083FF04C021E02093740063
S113031017C020917400213099F420916F0023308C
S113032020F42F5F20936F0003C021E020936F001F
S113033021E020936E001092740024E02093620068
S113034084FF04C021E02093750017C0209175003C
S1130350213099F420916F00233020F42F5F2093F3
S11303606F0003C021E020936F0021E020936E0012
S11303701092750025E02093620085FF04C021E0FF
S11303802093760017C020917600213099F42091B3
S11303906F00233020F42F5F20936F0003C021E00F
S11303A020936F0021E020936E001092760026E0E7
S11303B02093620086FF04C021E02093770017C0D9
S11303C020917700213099F420916F00233020F49C
S11303D02F5F20936F0003C021E020936F0021E082
S11303E020936E001092770027E020936200882308
S11303F024F481E08093780017C0809178008130E4
S113040099F480916F00833020F48F5F80936F00A4
S113041003C081E080936F0081E080936E001092AE
S1130420780088E08093620090FF04C081E08093AC
S1130430790017C080917900813099F480916F0020
S1130440833020F48F5F80936F0003C081E080933A
S11304506F0081E080936E001092790089E08093B0
S1130460620092FF04C081E080937A001BC08091F7
S11304707A008130B9F481E080936E0080916D0040
S1130480833031F482E080936D0010926F0005C0D8
S113049083E080936D0010926F0010927A008BE0DD
S11304A0809362008091890083FF04C081E080937F
S11304B07B0017C080917B00813099F480916F009C
S11304C0833020F48F5F80936F0003C081E08093BA
S11304D06F0081E080936E0010927B008CE080932B
S11304E0620080916200089590DE90916F009130D7
S11304F091F490916E00992309F443C024E6829FFD
S1130500C0011124909384008093830010926E00A4
S11305108FEF9FEF08959230F9F490916E00992334
S113052099F190E09C01220F331F880F991F880FC7
S1130530991F880F991F820F931F20918300309178
S11305408400820F931F9093840080938300109201
S11305506E008FEF9FEF08959330C9F490916E0071
S11305609923C1F02091830030918400A901480FA0
S1130570511DCA01509384004093830010926E0071
S113058008958FEF9FEF08958FEF9FEF08958FEFFA
S11305909FEF08958FEF9FEF08951F920F920FB66C
S11305A00F9211248F9385E082BF80916C008F5F3E
S11305B080936C0080916B008F5F80936B008091BF
S11305C06C008C3038F080916A008F5F80936A00F1
S11305D010926C0080916B00853038F08091690036
S11305E08F5F8093690010926B008F910F900FBE04
S11305F00F901F90189582E087BB82EE81BB87E045
S113060084BB84E083BF81E089BF82EA8FBD8AE135
S11306108EBD8FE097E297BD86BD8AEA80938C00F9
S11306200895E82F46B557B59A01A5E0B2E0ACD1DC
S1130630481B590B56954795840F951F0024880F26
S1130640991F001C880F991F001C892F902DE89F6B
S11306509001E99F300D11243BBD2ABD0895CF932D
S1130660C1E0D3DD813039F480916F008130D9F459
S1130670C093680018C0843051F480916F008230B8
S113068091F480916800826080936800EACF85309D
S113069051F480916F00833021F780916800846069
S11306A08093680004C080916F008330D1F68091FC
S11306B06800873091F01092680010926F0084E611
S11306C0B0DF2FEF84E39CE0215080409040E1F7BD
S11306D000C0000080E0A5DFC4CFCF910895979AB1
S11306E067E08CE890E0F6DC0895FC0121818281CA
S11306F090E0820F911D2381820F911D2481820F2E
S1130700911D2581820F911D6FEF70E02AD18683A0
S1130710089571DF63E082E0B1DC789484E681DFE0
S11307202FEF80E792E0215080409040E1F700C035
S1130730000080E076DF2FEF80E792E021508040D8
S11307409040E1F700C0000084E66BDF2FEF80E704
S113075092E0215080409040E1F700C0000080E02A
S113076060DF2FEF80E792E0215080409040E1F776
S113077000C0000074DF84E654DF2FEF80E792E0CE
S1130780215080409040E1F700C0000080E049DF44
S11307902FEF80E792E0215080409040E1F700C0C5
S11307A0000084E63EDF2FEF80E792E02150804096
S11307B09040E1F700C0000080E033DF2FEF80E7D6
S11307C092E0215080409040E1F700C00000CCE866
S11307D0D0E00F2EFCECAF2EF02D0F2EFAEAEF2E08
S11307E0F02D0F2EFFE0CF2EF02D0F2EF0EFDF2E89
S11307F0F02D0F2EFBEBBF2EF02D0C2F1D2FFF2401
S1130800F394849B5EC080916500813071F584E629
S113081008DF2FEF80E792E0215080409040E1F71D
S113082000C0000080E0FDDE2FEF80E792E0215061
S113083080409040E1F700C0000084E6F2DE2FEF34
S113084080E792E0215080409040E1F700C0000032
S113085080E0E7DE2FEF80E792E021508040904077
S1130860E1F700C0000010926500969A95989B9B52
S113087014C0BD8239DE90938600809385008F3F3B
S11308802FEF920709F461C020916D00223019F412
S113089099838A835AC08B8358C0ED82B29902C06F
S11308A0DA8205C0B39902C0CA8201C01A82829951
S11308B002C0DB824AC0839902C0CB8246C01B823D
S11308C044C080916500811112C084E6AADE8FEFD6
S11308D094E32CE0815090402040E1F700C00000F8
S11308E080E09FDEF0926500AD829698959A8DDC4B
S11308F0809361008F3F11F080936700B09903C02B
S1130900F092660022C0B09B0DC0809166008823DF
S113091049F010926600F092640010926A001092FE
S11309206C0013C080916400882379F080916A0080
S1130930853030F410926000809167008C8305C08C
S1130940109264001C8210926700802F912FCDDEDC
S113095080916900882309F454CFC1DE10926900A4
S113096050CF97FB072E16F4009406D077FD08D0DD
S113097017D007FC05D03EF4909581959F4F0895BC
S1130980709561957F4F0895A29FB001B39FC001F8
S1130990A39F01D0B29F700D811D1124911D089554
S11309A0AA1BBB1B51E107C0AA1FBB1FA617B70791
S11309B010F0A61BB70B881F991F5A95A9F78095AD
S10F09C09095BC01CD010895F894FFCF80
S10709CC01FFFF0024
S9030000FC
